:0200000407FCF7
:10000000F067FC07BD01FC07C501FC07DD01FC072B
:1000100000000000000000000000000000000000E0
:10002000000000000000000000000000F501FC07D7
:100030000000000000000000F701FC07F901FC07C8
:10004000D119FC070B1AFC07A526F007B915FC0708
:100050002114FC07FB01FC079713FC07FB01FC07BD
:10006000FB01FC07FB01FC073711FC073B11FC07F8
:100070003F11FC074311FC074711FC07FB01FC077C
:100080007D11FC07FB01FC07FB01FC07FB01FC07E2
:10009000FB01FC07FB01FC07FB01FC07FB01FC0764
:0800A000000000008E070E00B5
:0200000407FCF7
:100110000448854603F05CFF004800478102FC0765
:10012000C046C046F067FC0710B51F480189C908E2
:10013000C9000181018A1D4CC90713D0808800289D
:1001400010D11B481949428820310A8182888A804F
:10015000C2880A80618AFF22813200889143C001EF
:10016000014361821349062008800F2000F00EF839
:10017000012000F00BF8002000F008F8608904214D
:10018000884360810020208062B610BD002809DB12
:10019000C106C90E0120884007490860BFF34F8F90
:1001A000BFF36F8F70470000000300500000005045
:1001B000A000FC070034005080E100E00F488047B9
:1001C0000F48004704207146084203D0EFF309802E
:1001D0000C490847EFF308800A4908470420714694
:1001E000084203D0EFF3098007490847EFF308807E
:1001F00005490847FEE7FEE7FEE7FEE72901FC07A1
:100200001101FC072502FC070D02FC070349C82069
:100210000880034908204880FEE7000000310050B4
:100220000033005005200007018A04221143018297
:100230000189402211430181054A01211160418A4F
:10024000012289088900D2031143418270470000CE
:1002500080E200E070B5094E0D4604461146304676
:1002600001F0E0F9AAB201232146304601F04EFA2E
:1002700070BD10B5014801F081FA10BD00110050A9
:1002800008B500F0C7F800F05FFB05242407082537
:10029000C826A04F0FE0012000F018FA00200090BF
:1002A000042168464DF74AFC002801D000F0D1FA3D
:1002B00060F736FD0BE02089000608D50120800795
:1002C000006B000403D494480078C0070BD072B6CA
:1002D00001F02CFC042810D0022815D0032813D0DC
:1002E000012821D021E05DF788F8002000F0EEF928
:1002F0008A4800780428DBD1CDE7894800780128B6
:1003000001D0032000E0022000F04EF8A08AC006D1
:1003100001D58448058030BFA08AC00601D5814838
:10032000458000F005F800E030BF62B63E80C2E7CD
:1003300010B500F069F97C4902280CD105200007AE
:10034000408AC005820F794802800A8942808A88E3
:1003500082800A88C28048896021C00500280ADBA3
:10036000714860300088C00705D06F4A2032508A3B
:100370008843203050826E4882888A4320328280AF
:100380006C48C078002807D06B48006801898AB2A1
:10039000416803205CF792F902F057FF6748016952
:1003A00004229143016110BD38B5694605240870E7
:1003B0002407218A054604221143218200F063F8B4
:1003C000594841896022C905002905DB564B203375
:1003D000598A91434031598255498B889343403320
:1003E0008B80022D01D0032D13D18188490849004B
:1003F0008180002000900099491C00911429FADBAB
:10040000618989088900491C618161894906FCD597
:10041000608038BDF0B54A484A49052301274A4A59
:10042000884201D31C4604E0904201D33C4600E0E0
:100430000024464D464E3F48AD19464E8470AD19D6
:100440000126B6034560B54201D8142500E0002519
:100450002540414C45708C4213D2404B2546EB1849
:10046000944205D38B4201D211230AE03B4608E0B7
:10047000934201D2142304E08B4201D2102300E006
:1004800000230370F0BDF8B5022801D0032835D150
:100490002A4A136904210B431361254A203A9389A0
:1004A0005B085B00938105242407224D022826D097
:1004B000608A884360826868AE78C01C870800F054
:1004C000EDFF608A10210843608225487F1E076285
:1004D000EFF31080012181F310882188802291435D
:1004E0002180002800D0012080F3108803205CF7D1
:1004F0000BF9002809D00120E8702683F8BD618A35
:100500001020814361826E78F0E70020E87028783F
:100510000640F2E70031005054BAFC07D08CFC07CB
:10052000B4BAFC070033005020000050A000FC07C4
:1005300020030050C88BFC0758B9FC0700ED00E011
:10054000C08BFC070070FC070040FC071001FC0793
:10055000A44F0000000004F8F067FC070C04000042
:100560000000F407704770B50D46002442F7C7F944
:100570002855641CE4B2202CF8D3002070BD10B5BF
:100580005EF7A8FD10BD10B55EF7ADFD10BD70475C
:100590007047704705210907488A012280088000BA
:1005A000D20310434882704744480178002902D0A2
:1005B0008021417070474249002008704149C8704D
:1005C00070473E490A78002A03D000280CD0022048
:1005D0000BE0002801D0022000E00120384908701B
:1005E00038490120C870704701208030487070473A
:1005F000002805D0012804D0022804D10120E0E71A
:10060000D2E70020FBE770472D4900200978002938
:1006100004D0012903D0022900D102207047012013
:10062000704726488178002904D0491E0906090E22
:10063000817019D142780021002A04D09207920FCC
:100640000270417004E00278002A01D0521E02704C
:100650001206120E017007D0012A03D0022A03D11C
:100660000120AEE70020FCE7704700B5134A907800
:10067000401C90701078002805D1FFF7C5FF431C7F
:10068000FFF792FF137000BD0C48C0787047002040
:10069000EFF31081012282F31088052212071289DC
:1006A000120605D40848028901231A43028118461C
:1006B000002900D0012181F310887047D08BFC07FE
:1006C000B4BAFC0754BAFC070033005010B5FE4C16
:1006D000A178002921D0FD49002803D008884007CF
:1006E000FCD402E00888400717D4CA88888811041F
:1006F0000A180020A070F64800235043800B401CCD
:100700004008E0611F204006492162F7A9FEE1622E
:10071000A06264214843000CA06110BDEB494880F1
:1007200008880322104308800888042210430880A8
:10073000E54901208870704770B5052000070189E0
:100740003022914301810189802211430181018975
:10075000082211430181DF490A88520852000A80A9
:100760004389182293434381048940231C43048115
:10077000048A0425AC430482848AA407FCD5D24DA4
:10078000AA246C61CD8801240F263602B5430B26BE
:100790003602AD19CD80CD882543CD804489944360
:1007A000083444814A88520852004A80018999439A
:1007B0000181012080070168821591430160C648CC
:1007C00001683F2252029143421489180160016876
:1007D00002031143016070BD10B5BB490122D20371
:1007E000C969904205D303F019FC8905800A0843C2
:1007F00010BD4843800A10BDEEE710B5B2498969C3
:100800004843B649401849005EF7FCFB10BDF4E7C9
:1008100070B500F0C8FB0446FFF7F9FFAA4D288128
:1008200020463C30FFF7F3FFAD49001D88602A8960
:100830001018C01DAB4A48601278022A01D111304D
:100840004860FFF7D9FFA849401880B25CF766FE00
:1008500070BDF0B5A54985B00120C863C86B0028FC
:10086000FCD101208007C069974C2169884201D2E0
:10087000002121611922411AD20191422AD320611B
:100880009B4801880391418802918788C6889949CD
:1008900003C900900191684600F05CFD00F084FD02
:1008A0000546012020567F280CD0281A40B2002887
:1008B00001DA404240B2082805DBE068401CE060F5
:1008C00001F0FFFA65708A48029941808780C680EE
:1008D0000399018005B0F0BD0020704710B586492E
:1008E00000200860FFF794FF01208007016B49009A
:1008F0004908016310BD08B57349888075498A8825
:10090000520852008A80002200920099491C0091EE
:100910001429FADB052109074B899B089B005B1C06
:100920004B814B895B06FCD54880E120C0000092DA
:10093000521C00928242FBDB48898008800048817B
:1009400048890006FCD508BDF8B56C48C82101806F
:10095000002141806A480824448000F097FB694DDB
:10096000A988684601800088C046C046684600885D
:10097000042398433ED00020A8806248203001889C
:100980000F22920211430180524E2036718A214378
:100990007182504960310A880625AA430A80058879
:1009A000CA0115430580758A95437582B28A0E2562
:1009B000AA43921DB282474A5589534FED050D88CF
:1009C0001DD5BD435701ED190D800D880F022D0572
:1009D0002D0DED190D8005882543058005889D4363
:1009E00005800D886D086D000D8001884025A943A4
:1009F000018020E0288A400840002882BDE7BD43EE
:100A000003277F02ED190D800D880F273F033D431B
:100A10000D800588A543058005889D430580B58A1E
:100A200003277F02BD43B5820D8801273D430D801A
:100A300051894907FCD50188032529430180718A22
:100A40006025A943203171828188A94320318180AA
:100A500001201D4E052530702D07E88AC0218843EE
:100A60008030E882108A000A00021082108B1C215C
:100A700088430830108325480380A8880121C902D3
:100A80008843A88048012249086000F007FD022041
:100A900000F0E2FC1F4F3869C0B2AA2875D00120CF
:100AA00029880C229143800001432980C046C0461A
:100AB0000548203000F0A0FA00F02AF900F070FAA2
:100AC000002864D028E00000D88BFC0700160050F6
:100AD00011110100200000500002004020A1070079
:100AE000B851FC07B4BAFC07E2040000C0000040A3
:100AF000001500509047FC07A8B9FC0700310050D2
:100B00000033005000030050000F000000020050AE
:100B100080E200E0C07FF80700F042FAFFF7EBFE4A
:100B20007F207070B86A1E49086000F0D6FC00F0A3
:100B300041F802F08AFB012041F7E7FEFFF7FCFDD8
:100B40001848006841F786FB17490020C8700871F3
:100B500001208007016882151143016000F0B8FE92
:100B60001E20FFF7DBFD0120FFF7B0FDFFF71CFDA6
:100B700001F0CFFE02F082FBFFF7B0FE0B49C82068
:100B800008800B484480F8BDFFE7032088E73869F8
:100B9000C0B2AA2801D06E20C0E78020BEE70000C6
:100BA000B851FC074CB9FC0754BAFC07003100509F
:100BB0000033005070B53548334D006834492C6817
:100BC00092B0884205D005225202324932485EF77F
:100BD00093FA324E324930465EF7A7FA0721314880
:100BE00009025EF7A2FA2C6003F0DAF92F492E48C9
:100BF00008602F480024048030222E492E485EF7DA
:100C00007BFA29490822083903C91191109010A9CB
:100C10002A485EF771FA24494022283168465EF777
:100C20006BFA4022694626485EF766FA254827494E
:100C30000470254808602749254808602749264848
:100C4000086027490A200870264827490470322086
:100C50000870264905200860254A012111602549B0
:100C600008602549062008602449072008602449B7
:100C700008200860FF2023490730086022490860E7
:100C80002248066012B070BD5CBAFC079CB8FC0735
:100C90006587341200B0FC07748EFC0700A0FC07C7
:100CA000AC14000000B9FC07A047FC0760BAFC07C1
:100CB000088CFC077CFCF10700BAFC07DAB9FC07DA
:100CC000B0BCFC07FDB9FC07603FF20750B9FC0758
:100CD0002845FC0754B9FC07A446FC0758B9FC0793
:100CE000B0B9FC07B1B9FC07D9B9FC075CB9FC077E
:100CF00060B9FC0764B9FC0768B9FC076CB9FC076C
:100D000070B9FC0748B9FC0744B9FC074CB9FC07AB
:100D1000F0B5AD4C89B000202076607603900120BC
:100D2000C046C046A9480069A949884202D0C817F0
:100D300009B0F0BDA54F0425403FE819016D0191B0
:100D4000090F092910D0012201989207904272D30D
:100D5000A04A90426FD8A049083588427AD1E81954
:100D6000C16C9E48418099E0019A01991204C9B270
:100D7000160E11292FD007DC0B005EF711FA086858
:100D800068686868680D1C6812390B005EF708FA1D
:100D9000063445555F585D5F207EB200C1008A4829
:100DA000403808188949143169185EF7A5F9207E82
:100DB000801920764BE0607EB200C1008248403846
:100DC000081882491030143169185EF795F9607E71
:100DD000801960763BE0416D89B20491406D000C52
:100DE00001460290049800F0E1F8A080029904986E
:100DF00000F0E4F8E0802AE0416D89B20491406D92
:100E0000000C01460290049800F0D0F8208102996D
:100E1000049800F0D3F8608119E0039806A98000D7
:100E200040186A49B200143169185EF765F90398F1
:100E3000801903900BE027E00CE0406D608206E033
:100E4000416D61484038016401E0406DA082B0000E
:100E5000451946E060492639884203D1E819C06C3B
:100E6000E0821BE05C49091F884204D1E819C06C8C
:100E70005A49888012E05849083988420ED1E81949
:100E8000C06C5649C88009E0072927D0082928D016
:100E90000A2926D0062924D0401C06D04B48103001
:100EA00029184F48814200D247E70698A081079849
:100EB000050C86B22946304600F078F8E0812946D4
:100EC000304600F07BF82082207E40082076607E4D
:100ED00040086076A08A002805D007E00020C046C0
:100EE000C0462D1DDAE77D20C000A08200201FE74C
:100EF000F8B5354C0025403C334F24E0EE00A059B6
:100F0000384988421AD1301900904068800A40045C
:100F100014D001F0BFFA092810D9009803224068C4
:100F20001202014609041040890E0843A1590860C5
:100F300000982D494068C001C00D02E0301940689A
:100F4000A15908606D1C387EA842D7DCF8BDF8B501
:100F50001D4C0025403C2746403717E0E8000619A5
:100F60002248316981420DD101F094FA092809D94A
:100F70001F49706908401C490988490408433169C0
:100F8000086002E03069716901606D1C787EA842DA
:100F9000E4DCF8BD0C48808970470B48408A7047F4
:100FA0000948C08A70470848808A7047081A0104B7
:100FB000890C40180F49401800B27047C2008018D1
:100FC000401A0004C01470474C8CFC07C07EF80720
:100FD000A5A5A5A54C42005028000050A000FC0784
:100FE000C07FF8074C100040C451FC073830004067
:100FF000FFFF01FC0100FFFF10B5062201495EF76B
:101000007BF810BDD47FF807052000070188302247
:10101000114301800188032211430180704705209C
:1010200000070188302291430180018889088900E6
:101030000180704713490A8B03231B029A43000265
:1010400002430A8370471048818A808A4905890FC4
:101050008004400FC900081870470B498A8A03238F
:101060005B029A43C3085B021A438A828A8A072377
:10107000DB0240079A43800C02438A8270470520B6
:10108000C04370472030005040000050704710B5FA
:10109000364C40010019490008181A43C28010BD9F
:1010A000324A4001801801228A40828070472F4ACC
:1010B0004001801801228A404280704770B5064680
:1010C0000498144600280D46304602D0FFF7EFFF83
:1010D00001E0FFF7E5FF224629463046FFF7D7FF3C
:1010E00070BD70B5012421460A3881400D4688B292
:1010F00000F02BF884401E48C189A9430C43C481E9
:1011000070BD10B504460A3804280AD82046FFF7F7
:10111000E8FF1849A00040188038806D002801D0F1
:10112000804710BD002CFCDBE106C90E0120884081
:101130001149086010BD0A20E3E70B20E1E70C200D
:10114000DFE70D20DDE70E20DBE700280BD0411E96
:101150004840C003010C002002E04908401C80B256
:101160000029FAD17047102070470000003000506D
:1011700000140050688CFC0780E200E010B5FFF717
:101180004EFF0522120790882049000504D5204B08
:101190001C880520A04311D09088C3061D481FD588
:1011A0008388DB071CD003881B0619D501228280A7
:1011B000028880239A430280486822E0188804222B
:1011C0001043188018884008400018800C68002CD4
:1011D00005D00220185E995E0A229A5EA04710BDD3
:1011E0009288D206FBD582889207F8D50288D2056C
:1011F000F5D5022282800288FF2301339A430280C0
:1012000088680028EBD0804710BD00007C8CFC076C
:1012100000020050000100507A48018801221203A8
:1012200091430180704777480188012212031143DE
:101230000180642000BF401EFCD170477149CA88FC
:10124000D208D2000243CA8070476E49CA88702310
:101250009A4300010243CA807047F8B5050043D0A5
:10126000684C2878218840229143800101432180E5
:101270006878FFF7EAFF2878002803D1687800092A
:10128000FFF7DCFFE8780426012820882DD0B04342
:1012900020802879A1880002C9B20143A180E0889A
:1012A00001274006400F7F02042820D0FFF7B4FF3B
:1012B000A97860880F225202904349020843608057
:1012C000687961888908890001436180A8790128CB
:1012D000208837D0B8432080E9796088FF22C13266
:1012E0009043890108436080F8BD3043D0E7FFF7A1
:1012F00054FE45490028088001D144480880FFF782
:1013000092FF208838432080218840208143014378
:1013100021806088304360806088C004C00C608099
:1013200060880F2149028843084360806088FF215C
:10133000C1318843FF218131084360806088800883
:101340008000D0E73843C6E72E48018801221143C8
:101350000180704770B505462A4C0020208021206E
:10136000000160804020A080FFF714FEA081A189C9
:10137000702081434031A181062000F035F82846D5
:10138000FFF76BFFFFF7E0FF70BD1E4801880222E8
:101390001143018070471B490120C8811C48006827
:1013A000002800D00047704710B5FFF7EEFF154842
:1013B00001888907C90FFBD10121C181008A124A26
:1013C00014491288801A7D22D2005043002801DD82
:1013D0004A1002E0002801DA0F4A80185DF728FE63
:1013E0008011193040B210BD002809DBC106C90EBA
:1013F0000120884009490860BFF34F8FBFF36F8F0A
:101400007047000000150050C851FC0740760000EE
:10141000888CFC07AA0500002BFDFFFF80E100E09F
:1014200010B50A4880890A49C96A002901D088474D
:1014300010BD042000F001F810BD002805DBC10636
:10144000C90E0120884003490860704720130050EE
:10145000CC51FC0780E200E008B531490A68530727
:101460005B0F6A4613701278904207D00A68D20860
:10147000D20002430A6048684007FCD508BD2948ED
:10148000007870472749002008707047264980007F
:1014900009582348016125494161704700B5EFF3C0
:1014A0001082012080F31088052000070188802326
:1014B000194301801A480168C908C90001604168E0
:1014C0004907FCD50320FFF7E1FF002A03D00120E4
:1014D00080F3108800BD0020FAE710B5EFF310810B
:1014E000012080F3108805221207108880231843FA
:1014F00010800B480468E408E40004604468640752
:10150000FCD50B4C0461094C446110889843108051
:10151000002903D0012080F3108810BD0020FAE7D5
:101520000000F4078C8CFC070848FC07090404A49D
:101530000F0099098307FF22DB0E9A408907090EE5
:101540009940002808DB8308DB489B001B181868BB
:1015500090430843186070470007000F083883085D
:10156000D6489B001B18D86990430843D861704740
:10157000D34930B4884201D0012100E00021D14A92
:101580004901891808E0838ADB07DB0F12D0038842
:10159000541C8D68CC81AB54CA898B899A42F2D392
:1015A00082885208520082808A69002A02D0C88943
:1015B00030BC104730BC704710B5C34800F0FBF892
:1015C00010BDEFF31081012282F31088BC4B05227D
:1015D00012079842908801D1802300E040231843ED
:1015E0009080002903D0012080F3108870470020EC
:1015F000FAE710B502464032938FDB07DB0FFBD1D1
:1016000083898022934313438381CCB2C0231C522D
:101610000B041B0E03800902090E8180818991430E
:10162000818110BDA64A904201D0012000E0002037
:10163000A44A4001801841617047F0B5A04F0D46A3
:101640000446B84201D0012000E000209D4940013D
:1016500046182046FFF7B5FF7C20005B2868010292
:10166000090A2046FFF7C5FFE978C8068A06800FF9
:10167000D20FC000920049071043490F0843A081D0
:10168000E878C109204680300183E978CA091AD078
:10169000BC4210D14906CA0F218A20239943520126
:1016A00011432182E9784906CA0F218A022399430E
:1016B00052001143218229790907890F81832979F1
:1016C0008907890F0184287A3077E86830612869B2
:1016D00070616869B06128790007800F7077F0BD8C
:1016E000828A5209D207D20FFAD00180704730B5F2
:1016F00013460C46054606E021782846641CFFF791
:10170000EFFF5B1E9BB2002BF6D130BD70B56C4D68
:101710000446A84201D0012000E00020694E4001AB
:1017200086190020F080B280002B06D0012B07D153
:101730003160AC4205D1022004E02046FFF7D7FF1C
:1017400070BD032000F029F8A088022188430843D7
:10175000A080A088802188430843A080317FAC42CC
:1017600001D1022000E00320FFF7E4FEAC4201D1EA
:10177000022000E0032000F007F870BD818A89098B
:10178000C907C90FFAD07047002805DBC106C90E8A
:10179000012088404D490860704700280ADBC106D7
:1017A000C90E01208840494980310860BFF34F8F3E
:1017B000BFF36F8F7047F8B5414D424E0446208904
:1017C0000007000F062826D009DC012840D0022897
:1017D0001DD00428F3D12046FFF7CAFEEFE7072803
:1017E00028D00C28EBD1AC4201D0012000E0002031
:1017F000400187192046FFF7BBFEA1884908490030
:10180000A180B9690029DAD0F8898847D7E720464E
:1018100000F01FF8D3E72046AC4201D0012100E0E0
:101820000021490189190A69002AC8D0818A9E23AA
:1018300019400BE02046AC4201D0012100E000211C
:10184000490189190A69002AB9D001219047B6E7F0
:10185000F8BD1B4930B4884201D0012100E00021CD
:10186000184A490189180EE003891B069B0F032BB8
:101870001BD0838A9B06DB0F002B1BD0531C0C68EC
:10188000CB80A25C0280CA888B889A42ECD3828883
:1018900002239A438280828880239A4382804A6905
:1018A000002A07D0888830BC10477C231B5A9B072E
:1018B000DB0FE1E77EE6000000E400E000ED00E081
:1018C00000100050908CFC070011005000E100E077
:1018D000F8B51B48194D0068A8422ED0FF26C13626
:1018E000012130465AF778FF044616480168164829
:1018F0000A0A017042700A0C8270090EC17000223F
:10190000A35CFF21C0319F07891ABF0F615CC75DCF
:1019100079405940A154521CB242F1D30A481C22CA
:101920002146001D5FF77CFB20465AF7D0FF064892
:10193000406840F7EAFF02480560F8BD6587341249
:101940009CB8FC07B851FC07FC51FC07F8B5012511
:10195000AD07AC6B2046FEF74FFF6349634F4A6803
:10196000861800204860394630465DF74BFB6049D9
:1019700048603A465043301A00D0381A80B20860A6
:10198000286B08218843084328635A480460F8BD3F
:1019900010B5FFF744FB052000074189890703D0F4
:1019A000418989088900418101898022114301818F
:1019B000018A042291430182818A8907FCD500F0C3
:1019C000ADF801208007016901694907FCD510BD08
:1019D00010B5FFF719FB484801894907FCD4FFF708
:1019E0001EFB464805210088090748804448454CAD
:1019F0000088801E608007202080FFF705FB20887C
:101A00004007FCD4FFF7C4FF10BDF8B53E4801689D
:101A1000C90703D00168022211430160016849022D
:101A200004D50168012292051143016001272E4E61
:101A3000BD072C69002C56D0200606D58020A86151
:101A40004BF725FF1E20FEF769FEA00703D50220F5
:101A5000A86147F71AFE20070AD50820A86102F0FE
:101A60004CFA002047F7CAFD0420307000F009FD51
:101A7000E00505D5FF200130A861012047F7BEFD34
:101A8000A00504D501204002A8614BF769FF60065C
:101A900003D54020A86147F7ACFDE00603D5102030
:101AA000A86146F769F960070FD50420A8611248BC
:101AB00001894908490001815BF706FD40F7C0FD37
:101AC0001E20FEF72BFE00203070E00706D001201C
:101AD000A8615BF715FD4BF7DAFE3770A006A8D5B5
:101AE0002020A861A5E7F8BDD08CFC07710200009A
:101AF00040000040D88CFC0700330050DC8BFC0712
:101B0000E08BFC07001600500002004010B540F7C3
:101B1000DCFB694880686949086010BD10B540F772
:101B200000FC664864490068886010BDF8B500256F
:101B300000F0BEF800270090FEF7A6FD0146604CBD
:101B40000020002902D12179022900D100905D4EA8
:101B50003189C9070DD15AF71CFD002809D0E0785A
:101B600001250028FAD005200007808AC00701D08F
:101B700004259BE0208800287ED1FEF785FD002803
:101B800006D15148806A002802D000F091F80090F8
:101B9000FEF73EFE4A48817868465BF7F2FA002875
:101BA0006AD00124A407206940067FD44448817884
:101BB00068464BF7C3FF002878D00120FFF73AFAB8
:101BC0000099002906D0206AFF383938DA2801D870
:101BD000491E00913D4801883D4802683D488918EA
:101BE000016001208007C36B9B0A9B021343C36300
:101BF000C26B394B1A40394B1C68A3021A43C263AB
:101C0000C26BD202D20A49050A43C263344A009821
:101C100004250021904205D33249C82008800820BD
:101C20007080FEE7304B0CCB5DF716FA0903000D10
:101C30000843611C401E884200D120462049097992
:101C4000002900D0012147F78FFE2848C06A80474D
:101C5000FEF742FE002802D0FFF7D6F90127012047
:101C6000154C8007016B0904C90FFBD02068C00523
:101C7000FCD52168802000E018E081432160002F1E
:101C800001D0FFF7CCF97089462804D24621184AC2
:101C9000081A10607181FFF739FF20680006FCD533
:101CA00005200007028980218A4302812846F8BD69
:101CB00010480068806A704700020040DC8CFC0716
:101CC00054BAFC070033005074BEFC07E08BFC07DD
:101CD000C051FC071052FC07FF03E0FFBC51FC079A
:101CE00040420F0000310050008CFC0758BFFC0739
:101CF000D48CFC0758B9FC07002070477047704728
:101D000010B5282801D2282002E0E62800D9E620D4
:101D1000FF21F33148437D21C9005DF773F981301C
:101D2000C0B210BD7047704770B5C8229B4B0824E5
:101D30009B4D022904D0012902D01A806C80FEE755
:101D4000002804D0FF2804D01A806C80FEE7022906
:101D500002D000F09FFB70BD0C2070BD01218907EF
:101D6000086B0722104308638E48016802139143F1
:101D70000160704710B50220FFF75CF989480168DF
:101D8000020391430160884800214163416B1F2297
:101D90001204914342138918416301060868F02236
:101DA0009043E030086010BD10B58AB07F494162B1
:101DB0007F4981627F494161002430210C547E4972
:101DC000C1627E4901607E4901627E4941607E496F
:101DD000C16100F042FB7448416B1F221204914321
:101DE0004213891841636F480168C2129143016030
:101DF00068460455641CE4B2282CFAD301467348A3
:101E00002822006840305DF777F9092000F03FFB99
:101E100000F043FB002802D0012000F038FB00F066
:101E20001DFBFFF765F8FFF792F800F0D9F800F016
:101E300058F8FFF79FFF00F00FFB00F083F800F069
:101E400020FB0AB010BD10B55748416B1F22120489
:101E5000914342138918416300060168C908C9000B
:101E6000016005200007018908221143018100F06B
:101E700014FB002802D0012000F009FB00F0EEFA6C
:101E8000FFF736F8FFF763F800F0AAF800F029F83A
:101E9000FFF770FF00F035F800F0F3FA10BD10B551
:101EA000044670224A494B485DF726F949484830B4
:101EB000011B48481038018346495C31091B4183A6
:101EC00010BD10B500F0CAFAFFF741F800F088F82D
:101ED00000F007F800F0C0FA00F023F800F0D1FAA3
:101EE00010BD314B10B5403318683B4C0102090E50
:101EF000C2B20A3109040A32204011430143196079
:101F000010BD364A118B3348103083691B0C1B04FB
:101F10000B438361518BC269120C12040A43C261E4
:101F200070472E4A203A118B2A481030C3681B0C88
:101F30001B040B43C360518B0269120C12040A4349
:101F40000261704710B5FFF7ECFFFFF7DAFF234897
:101F50002038018A1F4810308268120C12040A438C
:101F600082601E4A40329188036A1B0C1B040B439B
:101F70000362D188426A120C12040A434262174972
:101F80004A88836A1B0C1B04134383628988C26AD4
:101F9000120C12040A43C26210BD0000003100504E
:101FA000003300500002004040000040F91CFC07D4
:101FB000FD1CFC07291DFC075D1DFC07FF1CFC0721
:101FC000251DFC07271DFC07011DFC074CB9FC075C
:101FD0002448FC0770A0FC0700FF00FF20300040F1
:101FE000F0B5FE48406B7F21090288430B210902AE
:101FF0004018FA494863086AF94980B24018F7491D
:102000000862886BF749012208405203F34980189F
:102010008863F2484030016903231B0219430161C0
:10202000818B102421438183EC4820308188012456
:1020300021438180ED49EC480860ED4C20883F2128
:10204000090188432F21090140182080E8482038E1
:102050008169E84D490D490549198161C169E64D1C
:10206000294009256D024919C1614168E34D2940A4
:10207000E34D491941608168E24D2940E24D49191B
:102080008160C168E14D2940E14D4919C160016994
:10209000E04D2940E04D49190161E049C514097836
:1020A00009064919C1256D012943DD4D2960052522
:1020B000DC49AD020D816D1D8D81DA4920310D891C
:1020C0002D0A2D0255350D818D25AD000D82D64D81
:1020D0008D82D64D0D83D44D0E3D8D83D349D14D88
:1020E000C91D40352980D249A181C16BD14C214005
:1020F000D14C0919C163FF20D04C6C302080CF48EF
:102100002030068B1F2149010B258E43AD01761926
:102110000683CA484030868809278E43BF01F619D6
:102120008680068915278E437F01F61906818689E8
:102130008E4371198181FF208D30A080BF4880308F
:102140000189E024A14319430181818B4909490197
:1021500019318183B2482030818B5B019943891802
:102160008183AF4880300168C908C900C91C01607B
:10217000AB49B34840314862F0BDA94908B50020D9
:102180008031C8620090401C0090FF28FBDDAD4804
:102190000078AA49C006820D4031C8681F235B0140
:1021A00098431043C86008BDA7488C490068403177
:1021B00008608A488169890989011C3181618169C6
:1021C000C21391438161016B3F22120691430722A2
:1021D000920689180163016B3F22920191430F22FD
:1021E000D20189180163016B890989011E310163DC
:1021F00070477A48C16949084900C16170478F48F2
:1022000008B54030C1688F4A8905C90E1170C16890
:102210001F2252019143C160814901208871804889
:102220008030C16A03221143C16200200090401C2B
:102230000090FF28FBDD08BD08B5794902208871B0
:1022400000200090401C00900B28FBDB08BD634879
:1022500041210177C1690322520291430215891875
:10226000C16170475D4840300168774A11600021C4
:10227000C94301605948816989098901816181697E
:10228000C21391438161C169032252029143031534
:10229000C918C161C169702399434031C161016BA3
:1022A0003F231B0699430B235B06C9180163016B8F
:1022B0003F239B01994389180163016B89098901B7
:1022C000183101637047F8B5554803274771434CEF
:1022D0006068C009C00114306060FFF7C3FF43208D
:1022E0002077FFF7A9FFFFF78AFF00252615009545
:1022F0000098401C0090B042FADB49490320487125
:10230000364880308068C705FF0DFFF736FF00951F
:102310000098401C00901028FADBA0694002400A97
:10232000F9050843A061A06948490840B90108437C
:10233000A061FFF78CFFFFF77FFFFFF760FF0095BD
:102340000098401C0090B042FADB354903204871E8
:10235000224880308068C705FF0DFFF70EFF00950B
:102360000098401C00901028FADBA0694002400A47
:10237000F9050843A061A06934490840B901084340
:10238000A061FFF764FFFFF757FFFFF738FF0095E5
:102390000098401C0090B042FADB214903204871AC
:1023A0000E4880308068C605A069F60D4002400ADC
:1023B000F1050843A061A06924490840B101084320
:1023C000A061FFF716FFFFF7EFFEFFF7D6FE0095BF
:1023D0000098401C00901028FADB39E000300040E3
:1023E00000008888FF00FEFF59055C078000004060
:1023F0002020004009581A00FEE1FFFFE0E0000045
:102400000809294900000303696A686C031FFFFF7C
:1024100070600000E0E0E0E00B0A0A08E08CFC07D6
:102420000010004020130040340A00005108000052
:10243000070F00002F64E0FE101A06010012004092
:1024400050015001B050FC071452FC073F80FFFFC1
:10245000134846810120F8BD35E7704708B511489B
:102460000821017100210091009A521C0092102A4B
:10247000FADB0091491C00911029FBDB032141711B
:1024800008BD0848022181710021818070470649FA
:1024900008707047044800787047034840787047D8
:1024A0001852FC0700100040E08CFC07FFB585B017
:1024B0000C46FD205EF79CFE0390002768460770DF
:1024C00008986946060A20885FF7BEFF05466088BF
:1024D000002806D04448C82101804449082048808B
:1024E000FEE7002D71D1FD2000F05AFE6946097803
:1024F0001423594342680B1DD35C022B28D1515839
:102500003B4A0988914223D10197029720885FF7BF
:1025100036FF00280ED001AB002204A94EF724FD9F
:10252000049821468005C00F5FF714FF05062D0EA5
:1025300007D04AE02C49C82008802C490820488050
:10254000FEE768460178E288304660F7DEF821E071
:1025500000280BD080698446002807D06846A288EE
:102560006188A31D00786546A84705460197029734
:10257000208801A94EF773FA002D26D10198008911
:10258000C00B07D16288A1882088A31D4EF7D1FA1D
:10259000051E1AD1314603985EF748FE0146A08811
:1025A000079A801D83B213485AF724FA0746A28877
:1025B000A11D801D5CF7A0FD684600787880A0888A
:1025C000B8803E7038465AF730FA04230A48079A12
:1025D00008995AF70FFA2188018085705AF725FA71
:1025E000002009B0F0BD0000003100500033005061
:1025F000022900000AFD0000160C0000F8B50025B5
:10260000244CFF272E46002813D12846103026617F
:10261000A082E7826660A660E681A681C0B22146FC
:1026200026605AF7E6FB6D1CEDB21834022DECD390
:10263000F8BDE08A5EF762FE002802D041682046BD
:102640008847E7826660A660E681207D5AF72BFC0A
:102650006D1CEDB21834022DEBD3F8BDF1B50D4D64
:102660000D4F00242E46E88AFD2803D11820604330
:1026700080194760E88A5EF741FE002803D082682F
:10268000284600999047641CE4B21835022CEAD31E
:10269000F8BD0000E88CFC07EC48FC0710B500F022
:1026A0005CF910BD10B539490A780270401C491C0C
:1026B0005CF722FD10BD3549498C01807047082127
:1026C000018010214180002181807D21C1807047DF
:1026D00070B50C46017800252C4B002904D0012947
:1026E00009D04820207070BD8278011D1A70581CD6
:1026F0005CF702FD01E040885884257070BD012020
:102700000870002048808880704770B50446407982
:10271000800911D140F7F3F8014620700A0A62706F
:102720000A0CA270090EE170251D40F7E8F8287028
:10273000000AC0210843607170BD10B500F0E7FBCE
:1027400010BD1FB54978002908D0114A012901D0D0
:1027500002290DD101230092042206E00DA21ECA17
:1027600003946C460EC401231022694600F0EEFB70
:102770001FBD10B50446497800F02AFA204600F043
:1027800024FC204600F015FC10BD00003C8DFC0729
:1027900040E20100000102030405060708090A0BD4
:1027A0000C0D0E0F0021784A05E0834201D1012073
:1027B0007047491CC9B20C234B43D35CFF2BF4D1A7
:1027C0000020704770B57049704C0E460C36704D45
:1027D0000DE052185268002A07D0C2B20C235A43A7
:1027E00051184968401C60702DE0401C6070607892
:1027F0000C2242438B5CFF2BEBD10AE0891949681C
:10280000002903D0FFF7CEFF002809D02078401C14
:10281000207021780C204143705CFF28EED117E036
:1028200020780C21414389194968401C20700AE036
:102830004919C968002909D0C1B21C22514349195C
:10284000C968401CA0708847002070BD401CA07063
:10285000A0781C2141436A5CFF2AE9D10020A070C6
:1028600060702070012070BD10B5484CE0680028F1
:102870001CD152230422092146485AF7BBF80D21E6
:10288000E060017000214170434A8280C2800722CB
:102890000272817201224272C1722B2319540246C4
:1028A0000C323EA30E210B3060F734FEE06810BD01
:1028B00070B5364EB068002829D136482C23042242
:1028C000092109385AF796F8032101700121B060F7
:1028D000417017210184002585760446458010212A
:1028E0000A305CF722FC2021E176A583E5832F489E
:1028F0006584C08FFB21FB2800D908462B49E08462
:1029000040312B480988814200D808462085B068AC
:1029100070BD3EB500251C49009501950C2234314F
:10292000684602955CF7E8FB18480C2218306946A7
:102930005CF7E2FB154C0E222434227017A1601CB8
:102940005CF7DAFB10496584243104205AF751FA08
:10295000002104205AF77FFA3EBD10B5FFF784FF2F
:102960005AF763F809490020C860022104205AF789
:1029700072FA10BD10B5FFF79BFF5AF756F80349DE
:102980000020886010BD00002849FC07188DFC0756
:10299000E84AFC070D0D00004C0400004449414C7E
:1029A0004F472D5343414E4E45520000F0BBFC07AC
:1029B0004808000010B510465AF762FA002806D001
:1029C0007C49C82008807C4908204880FEE7012314
:1029D0000422092179485AF70DF8012101705AF7AC
:1029E00024F8002010BD70B50D780F2D25D00ADC1D
:1029F0000C2D22DAC8206F4A08236F4C012D07D016
:102A0000032D1AD10DE0112D14D0122D15D111E086
:102A10004978002902D010806380FEE7FFF7AAFF03
:102A20000BE04978002902D010806380FEE700F0B7
:102A300046FC02E0487800F049FC002070BDF8B583
:102A40001C4610460E465AF71BFA022806D0594972
:102A5000C8200880584908204880FEE7240A0C2036
:102A60002746474356483D18AC70FF2C1AD0012129
:102A7000E970032104205AF7EEF951483188C15317
:102A8000707A28713146681D06220A315CF734FBE2
:102A90007A204C49604340186030017E0122204674
:102AA00060F722FD0020F8BD0A784878092A08D08E
:102AB000002806D03F49C82008803F4908204880A8
:102AC000FEE70020704710B51C4610465AF7D8F9AB
:102AD000210A032806D03749C82008803649082033
:102AE0004880FEE70C2041433548FF2208188270D9
:102AF0000021C170084610BDF0B508780025324CA1
:102B000089B01F461646002804D0012817D0022895
:102B100027D129E06846FFF7C5FD684603783246AD
:102B2000394620460A3359F765FF04460570684662
:102B30000278411C6280201D5CF7DEFA2BE06946BA
:102B40000D806846FFF7B7FD0A2332463946204616
:102B500059F750FF0121017069460988418059F7F2
:102B600064FF002009B0F0BD0A233946204659F71A
:102B700041FF04466846FFF7A2FD02202070684628
:102B80000088608068464088A08068468088E08031
:102B90006846C08820812046E1E7FEB51C46089BB8
:102BA0000E260A4D6F4668C71346224660F7A0FB03
:102BB000FEBD00000031005000330050020D000047
:102BC000308DFC07768DFC070B0E00006849FC0772
:102BD000F8B50E467A2148430B4D07464419204666
:102BE000082226771430114600F016FBA01C102294
:102BF000314600F011FB3FF782FE6082E85D012163
:102C00000843E855F8BD0000768DFC0710B50A783A
:102C1000180A13005CF7C4FA08051A1A1A131818D0
:102C2000161A0C22404C424312190123D3727A2205
:102C30003E4C00234243A354FFF77FFD04E0FFF71F
:102C400080FD01E0FFF795FD002010BD3849C82048
:102C50000880384908204880FEE7F8B5180A1B0AA2
:102C600000901C460C267A20304D73430A7844436A
:102C70002D4E601907469E19921E603713005CF7AF
:102C80008FFA0604122A19212C2A89783976C90765
:102C900006D0711D062271305CF72EFA3079F87576
:102CA0000020F07217E00020F0723876009860F78C
:102CB00067FC10E017223A30891C5CF71DFA285D8A
:102CC000042106E010226130891C5CF715FA285DAA
:102CD0001021084328550020F8BD1C221E30891CF5
:102CE0005CF70AFA285D0221F3E700207047180A12
:102CF0007A2250430D4A097880186030017600200E
:102D00007047002070470020704700207047FEB5D4
:102D10001C46089B0726084D6F4668C71346224687
:102D200060F7E6FAFEBD0000308DFC07768DFC07EB
:102D30000031005000330050D849FC0710B50A2379
:102D4000042209210B4859F755FE04461B20207028
:102D5000142060F7A1FC6070142060800420A08023
:102D60000020E080FF2174312181204659F75DFE6B
:102D700010BD00001B0D0000F8B50E46097818467E
:102D80000B005CF70DFA090609120915150C180F4E
:102D90002F000B241DA510E007241FA50DE008241B
:102DA0001FA50AE0072421A507E00A2421A504E0C5
:102DB0000D2423A501E0062425A50146A31C2648D1
:102DC00059F718FE0746307838707C70002C04D014
:102DD00022462946B81C5CF78FF9384659F725FE7C
:102DE0000020F8BD1D49C82008801D4908204880E2
:102DF000FEE7FEB51C46089B01261A4D6F4668C7C4
:102E00001346224660F774FAFEBD00004469616C07
:102E10006F672053656D69004441313435333100AB
:102E2000123456FFFE9ABCDE0000000001D2008082
:102E300005000100312E302E302E302D4C45000083
:102E4000765F362E302E31362E313134340000008C
:102E5000FFEEDDCCBBAA00000314000000310050DF
:102E600000330050104AFC070520000700890006C7
:102E700008D501208007006B000403D403480078C4
:102E8000C00701D0002070470120704754BAFC07EA
:102E900070B50F49049C4118052901D3012070BD6C
:102EA00000F00DF80025002806DB0A4A8100505882
:102EB000002801D0555080472570002070BD04497E
:102EC0004018052801D240B270470020C043704727
:102ED000F2FBFFFFF48DFC07F8B5494D840029593A
:102EE000002912D101021E23042246480A3159F753
:102EF00081FD012606700746285107224249801CA1
:102F00005CF7FAF8002038717E702859F8BD10B5CA
:102F10000446FFF7E1FF59F788FD0020384AA10079
:102F2000505010BD70B5364D84002D1D2959002913
:102F300001D0084670BD01021E23042231480A3127
:102F400059F758FD04210170285170BDFFB581B0BB
:102F50001F460446FFF7E6FF294D0646A4002D1D37
:102F600028591021801C5CF7E0F82859039A801C2E
:102F700002995CF7C1F87770304659F756FD00208A
:102F8000285105B0F0BD70B51D4D84000C35295990
:102F9000002901D0084670BD01021E2304221948F1
:102FA0000A3159F727FD072101700121417028518D
:102FB00070BD10B50446FFF7E6FF59F736FD104A1D
:102FC0000020A1000C32505010BD70B50546FFF72F
:102FD000DAFF04467A2045430C4808222D18287F42
:102FE0002077688A608229462046143114305CF7C5
:102FF00083F8A91C1022A01C5CF77EF870BD0000AD
:10300000088EFC07140E0000E04AFC07768DFC07D2
:103010007047704770B50D460446FFF725FF00283E
:1030200006D057482A46042120185AF722F870BDC6
:10303000FDF72DFB5248042208231146801E59F744
:10304000D9FC4560047059F7F0FC70BDF8B59646A0
:103050004C4A9C468318C8264B4F08220024069DE4
:10306000002B2BD0012B08D0022B0CD04549C91EB8
:1030700041180A2938D30120F8BD6346724600F092
:1030800051F828704CE00878431E092B12D81A46D4
:1030900083003E481B1FC6583D4B9E423FD103460E
:1030A000920028339B5883504A6808781146FFF7EE
:1030B000B1FF34E03E8037484280FEE74B68002B8A
:1030C00006D03548834207D93E8032484280FEE729
:1030D0003E8030484280FEE7087829491A46401869
:1030E000042159F7C6FF1AE02649891E4018C0B2CC
:1030F000411E092913D8254983005A18803AD16FF7
:1031000000290CD0224EB14209D0244EB14206D043
:10311000D4671E4A28329A18803AD46788472C70A0
:103120000020F8BD10B508780C46411E09291FD8AB
:1031300082001648121F8258184B9A4205D100226D
:10314000890042502830425010E089004058104910
:1031500088420BD1042208231146094859F74AFC3A
:10316000217801706168416059F75FFC002010BD53
:103170000549C8200880074908204880FEE700006C
:1031800003040000FFFBFFFF00310050208EFC070E
:103190001330FC0700330050FCFF3F001130FC07E8
:1031A0000021154A06E0834203D11C2041438818C0
:1031B0007047491C1C234B43D35CFF2BF3D10020E9
:1031C000704710B51823042209210C4859F712FC46
:1031D00004461B202070FD2060F75EFA6070FD2021
:1031E00060800420A0800021E180E1602161A18253
:1031F000204659F71AFC10BDE84AFC071B0D0000D9
:103200003EB51D46069B002400931346019402948C
:103210002A4660F76DF83EBD10B58A4201D360F7CB
:103220009FF810BD38B50120032424020146009008
:103230001D2322460020FDF741FF002004232246E3
:1032400005210090FDF73AFF38BD10B51B20FDF7B2
:1032500016FF00F08FFE06490648FEF7EEF9FFF76D
:10326000E1FF0548012182898A430A43828110BD1A
:10327000A44FFC07001100500003005010B50120BE
:10328000FDF7B6F910BD10B50C230422092134480E
:1032900059F7B0FB122101700021FF2241702D323D
:1032A00082800422C2800222027241720121817254
:1032B00059F7BBFB0221042059F7CDFD10BD10B515
:1032C00028A05DF71BFDFFF7DEFF10BD10B52BA09A
:1032D0005DF714FDFFF7D7FF10BD70B50546044636
:1032E000203501208007816A406A2078012836D184
:1032F00026A05DF703FD287AFF210131081AC5B227
:1033000029462AA05DF7FAFC6379A279E1792AA01F
:103310005DF7F4FCA378E27821792CA05DF7EEFC50
:103320002F4E306832464100411808325554A37878
:1033300089184B70E2788A70A17880000B072949C0
:103340001B0F40182A4628A100F054FE3068294976
:10335000401C3060884202DB27A05DF7CFFC70BDC7
:103360000F0D000044657620636F6E666967206309
:103370006F6D706C6574650D0A0000005343414E1B
:1033800020434F4D504C4554450D0A00466F756E15
:1033900064204144565F4449524543545F494E447A
:1033A000207061636B6574200D0A0000525353490D
:1033B0003A202D25640D0A005B253032783A2530FD
:1033C00032783A253032783A0000000025303278E1
:1033D0003A253032783A253032785D2000000000FE
:1033E0004452FC07045EFC072530327825303278E1
:1033F00000000000E7030000726561640000000047
:10340000F8B5074601200023024600901946032024
:1034100045F7F8FF0446022180300170FF4DFE4859
:103420002A6843881146FF31F7310B868088488629
:10343000FB48066A0123DB069E431E430662FF32F9
:103440000020FF32383250829082D0821D200882C4
:10345000F4484884F448C882F4480883002048822D
:10346000384646F70FFB01462868FF30F730C28B1D
:10347000920992010A43C283ED48416800208847BF
:10348000002C02D0204645F7A6FB2046F8BDFFB52C
:103490008BB0064616980027022821D00D98018887
:1034A0001498814278D37188084640383F2802D862
:1034B000159852F7A3FB0C98361D0088149A8019B2
:1034C0000E995BF719FE0C980188149808180C994E
:1034D00008800D9801881498081A0D9908805CE1FD
:1034E00000200E9D079069782C78090221433180D5
:1034F000E978AC780902214371808C464039042474
:103500002D1D024603468E46402900D32878614689
:1035100004291FD0052914D0062918D070463F2849
:103520003DD8159852F76AFB0006000E04D0C1483A
:10353000008D0006C00F30D002230120BE4A0027B4
:1035400012E0697800290FD0BC4A17230CE0BC4A6E
:103550000F2309E0522802D0D22802D002E0142022
:1035600000E01520B74A1F23002A1AD0984218D22B
:10357000800010580490002813D000200890059077
:1035800070884038402803D32878052430716D1C9A
:10359000701D00900498B5E0FEE03027F0E033277E
:1035A000EEE07088042872D10627E9E0522862D044
:1035B0000CDC4B283FD004DC41286AD0422858D18B
:1035C00011E04C2820D0502853D140E0632830D05F
:1035D00004DC572818D061284BD19BE06C2864D0BC
:1035E000772846D109E00098297801700098641C7A
:1035F000401CA4B26D1C009081E00498401C049013
:103600000178089881427AD10098A41C401C410896
:103610004900881C009068782A78000210430880CE
:103620000599AD1CA4B2002969D00890002005902E
:1036300065E00120FBE71022294600985BF75CFD5E
:10364000009810341030A4B21035009057E0204696
:1036500040301499039088420BD8402229460098A4
:103660005BF74AFD0098403000900398403584B2E3
:1036700045E0342743E00822294600985BF73CFDEB
:10368000009808340830A4B20835009037E068E0AC
:10369000FFE70622294600985BF72EFD0098A41D3F
:1036A000801DA4B2AD1D009029E01498001B80B2CB
:1036B00003903088001B001D81B201200790049800
:1036C000401C04900098401C400840000090049862
:1036D000007857281CD04228CBD100980170090AE5
:1036E000417000982946801C0090039A5BF704FD06
:1036F00003980399201884B2009840180090049809
:10370000401C0490007800281ED0002F17D01BE02A
:103710004908E2E71498001B81B200980391401C0D
:1037200040084000009001200A4607902946009872
:103730005BF7E2FC0399601884B20098DDE70D990D
:103740000988A14200D331E70D980088A04208D330
:1037500004990978002904D10799002903D1A042CE
:1037600001D034270CE00D99001B08800C980188CB
:103770000098801B001F08180C99002F08800CD09F
:103780007088042809D0062807D04038402804D380
:103790000E984079707100E0342738460FB0F0BDC4
:1037A000FFB581B01F4616460C46104659F768FB18
:1037B00000257F2802D02189062909D03B463246C0
:1037C0002146019852F7ADFD0546284605B0F0BDEB
:1037D000C00601D50225F8E720780028F5D1300A87
:1037E000A11D3EF736FFF0E7F1B598B018983FF706
:1037F0002EF90446189805210079134A4006C00F97
:10380000099068460184618B08460A38904276D256
:10381000E08A062873D319E030BCFC074CB9FC07DA
:10382000C0000040108000002941000076710000B7
:1038300058BFFC0748BEFC073803F2074003F207F5
:103840009C03F207D803F207770C00001922D2017B
:10385000904254D8228BFF23F5339A424FD8521C02
:103860009300D2184243521C0A23521059438A42F1
:1038700045DC217F00290CD1617F002909D1A17F7E
:10388000002906D1E17F002903D12021095DC90665
:1038900035D0274620377978C906C90E491F0C292B
:1038A0002DD2A18A81422AD8E17C002927D0421E4C
:1038B000082A01D9082000E0401E81421FD868462E
:1038C00043F786F900281AD1FE4D062228622146C8
:1038D0000BA85BF711FCA8792E46803E00287DD00E
:1038E0006079800901280BD00BA8099949F73FFCA2
:1038F000010003D03820405C002870D09CE009E132
:10390000F06A807A012808D0042806D00BA849F76D
:103910009BFC286200284ED054E0686A06220BA95E
:1039200032305BF70DFC002806D00BA849F78CFC61
:103930002862002802D012E0686AF9E700210BA88B
:1039400049F798FC2862F16A897A012905D18B0729
:103950001A6849068A430A431A60002811D0F16A9E
:10396000286A0622253010315BF7EAFB002808D1CF
:10397000286AF16A2030C07AC97B884201D1286A5E
:103980001EE0D148D1490088C96880B20622504360
:1039900008183FF761F8014614A8062202305BF7C9
:1039A000ABFB13AA00213C203FF723FB0121B06DA4
:1039B00044F74AFDAAE011A90BA849F75BFC28626D
:1039C000002839D001460A9006220FA825315BF75E
:1039D00093FB0A9908AA2031C97A01E042E025E068
:1039E0000FA849F7A7FA002812D0286A2030C07A19
:1039F000002809D16846B649008C48F70EFA08AA93
:103A00000121B34849F796FA68460BA9008C0AE0F1
:103A100008AA012111A849F78DFA00280CD0296ABB
:103A20006846008C323148F70EFA05E00A18527DDC
:103A3000002A08D010286DDBF06A407A022806D0F0
:103A4000032804D00EE0401C1028EFDBF4E76846A2
:103A5000008C052806D308AA0BA8099949F76AFA29
:103A6000002857D000226946204649F70CFB002861
:103A700050D1F06A407A02280BD0032809D00023E5
:103A8000684602880BA8099949F71EFB002802D056
:103A90002FE00123F4E7E18A68460181218B41810F
:103AA000618B818178780622410968468175787832
:103AB000C106C90E6846417521460E305BF71CFBF6
:103AC000189800794006C10F6846017503882146A1
:103AD00002A8B26D44F75EF80146B06502A83FF750
:103AE000D6FA0020B065214668461C31008843F7AD
:103AF000C2F846F741F9734C2034207A002805D0EB
:103B00000021092059F7FFFA002020720021084601
:103B100059F7A1F919B0F0BDF8B56E4C064685000D
:103B20000F4660594C21095C24290ED140691022AE
:103B3000791D2E305BF7E0FA61592520403108737A
:103B400000221146304651F7ACF960594C21095C0E
:103B50000C291FD140691022791D2E305BF7CCFA59
:103B600060595F214069095C09072DD401462E3157
:103B700010221E305BF7E4FA00280CD060590921AE
:103B800040300173304651F7A9FE0146002230460D
:103B900050F706FDF8BD0421684601706A4605210C
:103BA000304650F7A7FE684601786020014368461A
:103BB0000170304651F792FE0146684602780123B3
:103BC000304650F702FEF8BD304651F787FE012817
:103BD00009D0605907214030017300221146304658
:103BE00051F75FF9F8BD615900204969C03188710A
:103BF00060590421426930461E3250F77BFE6059FD
:103C000041694031897F002907D01A214030017372
:103C10000021304651F7CFF9F8BD1B214030017328
:103C2000304651F71DFAF8BDF8B52A4C0546860016
:103C3000A0594C22125C192A11D140224D30491D45
:103C40005BF75AFAA059402223494D305BF778FAC6
:103C5000002805D020492846203958F7DCFBF8BD5C
:103C60000B21684601706A460521284650F742FE3E
:103C7000684601786020014368460170284651F784
:103C80002DFE0146684602780123284650F79DFD27
:103C9000F8BDFFB581B003980C46060A002559F718
:103CA000EFF8002827D0132825D0142823D00B485C
:103CB000B700C0592030407BC00637D5039859F76C
:103CC000DFF80DE030BCFC0768B9FC0760BBFC07FF
:103CD00050F5F1073CBEFC07FCBDFC0778BBFC07B8
:103CE00015280CD0A0793EF7A5FE304643F740FFDB
:103CF000032806D015E0A0793EF79CFE1FE00225C0
:103D00001DE0A848C0592030407B400704D53D2124
:103D100030463FF78DFB04E03D22002130463FF75F
:103D200096FB3D21304642F76BFF08E020461038F5
:103D30009D490181468120464BF754FC01252846C8
:103D400044E5F8B510460D46140A59F799F80100F4
:103D500030D09448A200835801271E8BBF023E43F7
:103D60001E83132926D0142924D0152911D0805858
:103D70002D21095C0123CA06002A0CDA0246A03272
:103D8000967D002E07D093753D21204642F738FFDF
:103D900010E00220F8BD090703D50021A03081758D
:103DA000F7E7A0308375204640F7C2F82946204641
:103DB00040F7F6F80020F8BDFFB581B01546170AA8
:103DC000104659F75DF8002837D0132835D014284D
:103DD00033D0290A8C00734E152815D0FF202946B0
:103DE000033059F790F930592D21095CC90603D5E4
:103DF000A030C07D00280DD03D026D1CA8B259F73F
:103E00003FF819280BD00EE030590121A030C175C0
:103E10000220DBE43D21384642F7F2FE0DE0A8B275
:103E2000012159F718F830590122018B52029143B0
:103E300001833846029940F7B3F80020C6E4F0B594
:103E400058498700C959002680314A8C8B8C1B2A1F
:103E500000D21B228C8B944200D222468A849A4242
:103E600000D001260B8CCD8C1B2B00D21B23CC8BBE
:103E70009C4200D22346CB84AB4200D001260B8E5D
:103E8000CD8D9C46FF2349339D4201D21C4600E064
:103E90002C460D8DA54200D325460D86654500D0E4
:103EA00001264C8EA4468C8D9C4200D21C464B8D24
:103EB000A34200D21C464C86644500D00126EB0884
:103EC0000B3B9BB29A4200D213468B865223354954
:103ED0005843364BCA591C688032D28C0419FF34BF
:103EE000D2B201342286C9591A6880318018FF3055
:103EF000498E013041863046F0BD2D48522200687F
:103F000064308188C37E5143284A12688918FF2291
:103F10005F32525AFF31120AD21A01310B8CD2B2DF
:103F2000DB0B09D00B8C5B045B0C0B84002A03D1E8
:103F30008088204A012111547047FFB51746140AA2
:103F400081B0184A0298A100515840780026194DB6
:103F5000002907D0295D002905D0002803D120467B
:103F600040F7CAFC2E553A46049B0299019841F746
:103F700054FC2BE410B518220F4910485BF7BCF82D
:103F80000D4B0F480C3B0ECB0EC00C480D49A0301A
:103F900001600D49416009490C482039086010BD95
:103FA0007047000078BBFC07060800004CB9FC070E
:103FB00084BBFC07708EFC07C84FFC07200008403C
:103FC000C000FC070459F007490C00BF07001000AF
:103FD000064C0125064E05E0E36807CC2B430C3C5C
:103FE00098471034B442F7D3FCF796F89050FC078A
:103FF000B050FC070FB410B504A9074B02AA0398F0
:1040000000F034F8044602A9002000F069FA2046C6
:1040100010BC08BC04B01847E144FC07F8B5040C18
:104020008BB2264682B25E430D0C1046370C5843C5
:10403000360480190021794116466E43370C360448
:104040008019794126466E438919F8BD02E008C8F7
:10405000121F08C1002AFAD170477047002001E002
:1040600001C1121F002AFBD170470000FFB591B0BB
:104070000F460546002606E025280AD0149A139913
:1040800090476D1C761C28780028F5D1304615B075
:10409000F0BD002400940121F34A029400E004439F
:1040A0006D1C2B780846203B98401042F7D12878A9
:1040B0002A280ED00222287801463039092915D83D
:1040C00000990A2359433039401814436D1C00905D
:1040D000F1E701CF0090002805DA012040030443F6
:1040E000009840420090022004436D1C28782E283E
:1040F00015D10420044368786D1C2A280AD101CF09
:104100006D1C02900BE002990A225143303940188D
:104110006D1C02902878014630390929F3D9287896
:104120006C2810D006DC4C281AD068280ED06A28DB
:1041300017D104E0742813D07A2812D110E001209E
:10414000400504430CE00121090501E003210905B4
:104150000C436978814203D10120000524186D1CAD
:104160006D1C28786E281ED00CDC632831D004DC4E
:1041700000288BD0582811D1B2E064287BD0692860
:104180000CD178E073282DD004DC6F2870D0702813
:1041900004D1A7E075286CD078286BD0149A1399B5
:1041A0009047761C62E06002400F022807D0032887
:1041B0000AD0042838680AD006603F1D56E03868E7
:1041C000F11706604160F8E738680680F5E7067089
:1041D000F3E73878694608740020487404A803900F
:1041E000012003E0386803900020C0433F1D6107B1
:1041F0000FD5002101E00199491C029A01919142D9
:1042000013DA8142F7DB019A0399895C0029F2D124
:104210000BE0002101E00199491C01918142FADB88
:10422000019A0399895C0029F5D101990098139AA4
:10423000401A00902146149B00F03CF90199801926
:10424000461807E0039803990078491C0391149AD3
:10425000139990470198401E0190401CF2D12146CD
:10426000149B139A009800F015F986196D1C0AE743
:1042700041E033E034E00A2000210490059160021F
:10428000410F022905D001CFC2179446032905D05A
:1042900007E0FF1DFF08FF0003CF06E000B2C217D2
:1042A0009446042902D140B2C1178C4600226146CF
:1042B000944506DA0A460021404291418C462D2160
:1042C00002E0210504D52B216A461176012103E085
:1042D000E10701D02021F7E7019155E00A200BE02A
:1042E000102009E01020049000210420044308203D
:1042F0000591029003E008200021059104906002DE
:10430000410F022905D001CF00229446032906D08F
:1043100006E0FF1DFF08FF0003CF8C4603E080B2DC
:10432000042900D1C0B20021019121072CD52978A0
:104330000391702906D0049A1021059B4A401A4324
:1043400005D00EE040216A461176012108E0614661
:10435000014306D030216A46117603995176022135
:104360000191049A0821059B4A401A430CD16146E9
:10437000014301D1610707D530216A461176012139
:1043800001910299491E02912978582904D037A138
:1043900003910FA90F910DE039A1F9E76146059B43
:1043A000049A5FF75DF8039B8C469B5C0F9A521E44
:1043B0000F92137061460143F0D10F9807A9081AB4
:1043C00020300390600704D5012000048443029844
:1043D00001E0012002900399884201DD401A00E0CB
:1043E000002041180290019809180098401A009086
:1043F000E00306D42146149B139A009800F05AF863
:1044000086190020049008E006A9085C149A139904
:1044100090470498401C761C049001998842F3DB75
:10442000E0030CD52146149B139A009800F042F843
:10443000861904E0149A302013999047761C02994B
:10444000481E02900029F5DC08E00F980F990078CB
:10445000491C0F91149A13999047761C0399481E92
:1044600003900029F1DCFAE60928010030313233EB
:1044700034353637383961626364656600000000A0
:10448000303132333435363738394142434445468A
:1044900000000000F8B5044600251E4617468804B3
:1044A00004D405E039462020B0476D1C641EF9D5C0
:1044B0002846F8BDFFB50446002581B01E46C80356
:1044C00001D5302700E02027880404D505E03846D0
:1044D0000399B0476D1C641EF9D5284605B0F0BDA0
:1044E0000A68531C0B60107070470000B850FC073E
:1044F000C58BFC07C68BFC07C08BFC07C48BFC0775
:104500005502FC077302FC072306FC076B06FC0739
:10451000F401040070CAEA80D0070640643200004B
:104520001045FC07F88BFC07A91DFC07471EFC077C
:1045300093DEF007F1DEF007F9DEF00749DFF00760
:1045400061DFF00777DFF00799DFF00719E3F00785
:10455000BDE5F007FDE3F0071DE4F0073DE4F007DB
:104560007BE4F0078BE4F007F5F9F007B1F7F0070B
:10457000CFF7F007EBF7F00705F8F00719F8F007A9
:1045800097F8F007AFF8F007DFCDF10767D0F10734
:10459000DBB9F007CD0DF207B10EF207AD0EF20751
:1045A000A90EF2078D21F0079505FC074D19FC07B0
:1045B000DD08FC070F08FC07F907FC07B57EF007CC
:1045C000837DF0070134FC07599EF107634CF10726
:1045D000FD25FC07D110F2075D26FC07B111F2079B
:1045E0004112F2077912F207000000008F05FC0764
:1045F0009105FC07B9C6F007D592F1078F34FC0787
:104600005F9DF1075F9CF107A137FC07EB72F10793
:10461000B922F1076B04F1076505FC072BA4F0072D
:10462000F1D2F0075FBDF007D5BDF00785BEF007FA
:104630003F3EFC07752EF0071581F007DF7FF0077E
:104640000937F007000000007F05FC078705FC071D
:104650006705FC07F3C3F10775C4F1079305FC0771
:104660009F1EFC070000000000000000000000008A
:10467000000000000000000000000000000000003A
:10468000000000000000000000000000000000002A
:10469000000000000000000000000000000000001A
:1046A0000000000005000000F067FC0700040000A7
:1046B0008092FC07AC020000748EFC07000400002E
:1046C0003895FC07700500002003000000A60E00CE
:1046D00004000000D2000000320000003C00000096
:1046E00001000000010000000200000002000000C4
:1046F00004000000030000000600000000000000AD
:1047000002000000020000000000000000000000A5
:104710000300000003000000050000000500000089
:10472000060000000A0000000A000000C8000000A7
:10473000B80B000002000000B80B0000B80B00002E
:1047400010000000D4010000CC0100007002000045
:104750006A000000040000000100000020000000CA
:104760000A00000001000000E20400008A020000CC
:10477000DC050000AF0000002045FC070000000041
:104780009448FC070C49FC07C04AFC07EC44FC07B2
:1047900001040000000000003F00000000000000D5
:1047A00001000001933CFC0701001D01433DFC0793
:1047B00001001E01B93DFC07010000023B3FFC0760
:1047C00000000000000000002000800000C0000089
:1047D0000000840000002822000000000000040007
:1047E00000F7FFFF7F00000030F0FF0F0000000027
:1047F00000040000000000000000000000000000B5
:104800000000000000000000010099090300990960
:10481000070099090F0099091F1099092F2099097C
:104820005F5199090800049000000000000000009A
:10483000030005D08B0035F010005CF0000010B0D4
:10484000000018B000001AB0030051F0000038B0AA
:1048500000003AB0000064B0000066B0000022B072
:10486000000024B0010005D0000000000A00008014
:1048700008030490000004F0030006D000000000CC
:104880000A00008008030490000004F0030006D032
:1048900000000000184CFC071C4CFC07204CFC07D7
:1048A000A131FC07130C00004B29F207150C000086
:1048B000AD24FC07170C0000572BF207000C00007A
:1048C0002328F20706FD00005728F20703FD000029
:1048D0003728F20708FD0000B328F2070EFD00009C
:1048E0000F29F20705FD0000992BF207A448FC07E9
:1048F0000900000014000000ED14F207FD000000A4
:104900002126F207FF00000000000000F448FC0729
:10491000E88CFC070200000000004C044C04070176
:104920000001020304050600FF0000000000000073
:1049300000000000140000003D2DFC0700000000F6
:10494000FF00000000000000000000000000000068
:10495000583FF207748DFC070400010000000000BE
:104960000000000000000000010D0000B529FC0758
:10497000000D0000E729FC07000E0000A92AFC0733
:10498000010E00003F2AFC07030E0000C72AFC07A7
:104990000A0E0000F92AFC070C0E00008531F20710
:1049A0001C0D0000C731F207100D00008530F20722
:1049B0000F0E0000F931F2072C0E00003932F20719
:1049C000120C00005332F207080E00006F32F2079B
:1049D0001B0E00009F30F207130E00000D2CFC0789
:1049E000150E00005B2CFC07170E0000EB2CFC07DB
:1049F000190E0000EF2CFC07150D0000032DFC071D
:104A0000210D0000072DFC07220D00000B2DFC07D7
:104A100002140000792DFC070000000000000000D7
:104A20000000000000000000BF32FC070000000092
:104A300000000000000000009D26FC07CD32FC07AE
:104A4000DB32FC0700000000A526FC07B726FC07A8
:104A5000BF26FC07D126FC0700000000FF26FC074C
:104A60000B27FC0700000000000000003B27FC07AC
:104A70004327FC0700000000000000007327FC072C
:104A80000000000000000000000000000000000026
:104A90000000000000000000000000000000000016
:104AA000000000009B2BFC074D30FC07912EFC07FB
:104AB0000F2DFC07F32DFC070132FC07F800000066
:104AC0007529FC07C527FC07184AFC0700000000F1
:104AD000A44AFC07308DFC07768DFC07608DFC072F
:104AE0000300001000010000FD000000204CFC0746
:104AF0002D000000C331FC07000000000000000092
:104B000000000000FF0000000000000000000000A6
:104B10000000000000000000000000000000000095
:104B2000595A08E4862A9E8FE911BC7C98434218A2
:104B300020EE8D0CE1F04A0CB325DC536A68862D1B
:104B40004F43313C939242E6A876FA3BEFB4875A42
:104B500017B967984C664C01963331B191590015DD
:104B60002368EC521E6244749A1BD18BAB75B66EEF
:104B70009EE7BA08B9A948ABA1AC031C2E0D296C5D
:104B800028D5E1C1E1C54729B55765C3BA47159E88
:104B90008C09E0D1815442408E4FD2B377E32A771B
:104BA000595A08E4862A9E8FE911BC7C7C4642183B
:104BB00020EE8D0CE1F04A0CB325DC536A68862C9C
:104BC0004F43313C939242E6A876FA3BEFB48759C3
:104BD000595A08E4862A9E08E911BC7CD04742183D
:104BE00017B967984C664C01963331B1915900144E
:104BF0002368EC521E6244749A1BD18BAB75B66D60
:104C000028D5E1C1E1C54729B55765C3BA47159D08
:104C10000028032802290129001A212D0300000081
:104C2000104CFC07100000000100000010001000F4
:104C3000204BFC07124CFC070200000001000000A2
:104C40000000000000000000304BFC0710000000D6
:104C5000080002000100000000000000164CFC07E4
:104C600002000000010000000D000D008050FC0754
:104C7000124CFC07020000000100000000000000D0
:104C800000000000404BFC071000000008800000FE
:104C90000180000000000000164CFC07020000002C
:104CA00001000000090009005850FC07124CFC07E5
:104CB00002000000010000000000000000000000F1
:104CC000504BFC0710000000010200000200000031
:104CD00000000000144CFC07020000000900020064
:104CE0000200000000000000164CFC07020000005B
:104CF000010000000B000B001C50FC07124CFC07CD
:104D000002000000010000000000000000000000A0
:104D1000604BFC07100000000100000002000000D2
:104D200000000000164CFC0702000000010000001B
:104D30000B000B002850FC07124CFC07020000007F
:104D4000010000000000000000000000704BFC07A4
:104D5000100000000102000001000000000000003F
:104D6000144CFC07020000000900020002000000D1
:104D700000000000164CFC070200000001000000CB
:104D80000C000C006450FC07124CFC0702000000F1
:104D9000010000000000000000000000804BFC0744
:104DA000100000004100000014000000000000009E
:104DB000144CFC0702000000090002000200000081
:104DC00000000000164CFC0702000000010000007B
:104DD0000C000C003450FC07124CFC0702000000D1
:104DE000010000000000000000000000904BFC07E4
:104DF0001000000009020200320000000000000064
:104E0000144CFC0702000000090002000200000030
:104E100000000000164CFC0702000000010000002A
:104E20000A000A007450FC07104CFC071000000038
:104E30000100000010001000A04BFC07124CFC0702
:104E4000020000000100000000000000000000005F
:104E5000B04BFC07100000000800020001800000B9
:104E600000000000164CFC070200000001000000DA
:104E7000080008004C50FC07124CFC070200000020
:104E8000010000000000000000000000C04BFC0713
:104E90001000000008800000010000000000000079
:104EA000164CFC0702000000010000001100110078
:104EB000F44FFC07104CFC0710000000010000003C
:104EC00010001000D04BFC07124CFC070200000041
:104ED000010000000000000000000000E04BFC07A3
:104EE00010000000010200000200000000000000AD
:104EF000144CFC0702000000090002000200000040
:104F000000000000164CFC07020000000100000039
:104F1000100010000850FC07124CFC0702000000B3
:104F2000010000000000000000000000F04BFC0742
:104F3000100000000100000002000000000000005E
:104F4000164CFC07020000000100000007000700EB
:104F50004450FC07124CFC07020000000100000056
:104F60000000000000000000004CFC0710000000E2
:104F7000410000000200000000000000144CFC078B
:104F80000200000009000200020000000000000012
:104F9000164CFC0702000000010000001200120085
:104FA000E04FFC070B080083000000000200000037
:104FB000000000000000000000000000E937FC07CE
:104FC000193BFC07293CFC07F99DF0070000000095
:104FD000E3A1F107000000004FA4F107000000006A
:104FE00052656164206D652028696E64696361742F
:104FF000652900005772697465206D6520286E6F01
:10500000207273702900000052656164206D652074
:10501000286E6F74696679290000000041444320BE
:1050200056616C75652031004144432056616C75B2
:1050300065203200496E64696361746561626C6504
:105040000000000052656164206D6500577269744C
:1050500065206D65000000004C4544205374617468
:1050600065000000427574746F6E2053746174653E
:10507000000000004C6F6E672056616C7565000083
:10508000436F6E74726F6C20506F696E7400000015
:10509000B450FC07B850FC07381700005C40FC0710
:1050A000C08BFC07C08BFC07B40200005C40FC070F
:0450B0000E000000EE
:0400000507FC0111E2
:00000001FF
